:1000000022C031C030C02FC02EC02DC08FC12BC028
:100010002AC029C028C027C026C025C024C023C0AC
:1000200022C021C020C04DC04FC051C053C055C0D8
:1000300057C059C05BC05DC05FC061C063C065C0D0
:1000400067C069C06BC011241FBECFE5D4E0DEBF1E
:10005000CDBF20E0A0E6B0E001C01D92AC3CB207ED
:10006000E1F7AAD2DDC9CCCF8AE280B981B18C7F19
:1000700081B9089584EA86BF06B607FEFDCF0895CC
:1000800087B38E6387BB87B38E7387BB88B38F6D4F
:1000900088BB8FEF81BB82BB2FEF83ED90E32150B4
:1000A00080409040E1F700C0000088B3817C88BBAD
:1000B000089590E08031910598F5FC01ED5EFF4FC9
:1000C00009948FE382BB089586E082BB08958BE597
:1000D00082BB08958FE482BB089586E682BB0895B3
:1000E0008DE682BB08958DE782BB089587E082BBD1
:1000F00008958FE782BB08958FE682BB089580E460
:1001000082BB08958EE582BB08958CE582BB08957D
:100110008DE782BB089580E582BB089589E782BBA5
:1001200008958EB588608EBD89B7806189BF8EE4E1
:100130008BBD80E28ABD8EB581608EBD08958F92A1
:100140009F92AF92BF92CF92DF92EF92FF92C090B8
:100150008600D0908700E0908800F090890087E5C5
:10016000C81684E0D806E104F10409F050C080917B
:100170009E00811107C0C19A88B3837E88BB80919D
:100180009C0097DF80919E00813099F48091AF00B0
:10019000811108C080917300811104C08091910089
:1001A000882351F1C29A88B3857E88BB8091AF00C5
:1001B00080DF80919E00823081F4809173008111F4
:1001C00005C080919100882309F49CC0C39A88B32C
:1001D000897E88BB809173006CDF80919E008330A4
:1001E00059F480919100882379F0C49A88B3817F73
:1001F00088BB809191005DDF80919E008F5F80932E
:100200009E00843008F489C010929E0086C0C70109
:10021000B60128EE33E040E050E0CAD820939100C8
:100220000F2EF4E68F2E912CA12CB12CF02DA501D0
:100230009401BED820937300C701B601A5019401B3
:10024000B7D80F2EFAE08F2E912CA12CB12CF02DC7
:10025000A5019401ADD82093AF00C701B601A50157
:100260009401A6D860939C0080919E00811107C0E4
:10027000C19A88B3837E88BB80919C001ADF8091ED
:100280009E00813099F48091AF00811108C0809167
:100290007300811104C080919100882349F1C29AB2
:1002A00088B3857E88BB8091AF0003DF80919E007C
:1002B000823079F480917300811104C080919100A3
:1002C000882331F1C39A88B3897E88BB80917300FB
:1002D000F0DE80919E00833059F480919100882354
:1002E00071F0C49A88B3817F88BB80919100E1DE70
:1002F00080919E008F5F80939E00843070F01092FA
:100300009E000BC080919E008F5F80939E0005C071
:1003100080919E008F5F80939E00FF90EF90DF9012
:10032000CF90BF90AF909F908F9008951F920F92A3
:100330000FB60F9211242F933F934F935F936F93B8
:100340007F938F939F93AF93BF93EF93FF9380918E
:10035000860090918700A0918800B0918900892B38
:100360008A2B8B2B21F488B3817E88BB01C0E7DE0A
:10037000FF91EF91BF91AF919F918F917F916F917D
:100380005F914F913F912F910F900FBE0F901F9053
:100390001895CF93C82F2FEF83EF91E02150804025
:1003A0009040E1F700C0000065DE8EEE83B984E87E
:1003B00086BF06B607FEFDCFC3B984E886BF06B682
:1003C00007FEFDCF57DE8FEE83B984E886BF06B601
:1003D00007FEFDCF84E886BF06B607FEFDCF84E9A1
:1003E00086BF83B1CF910895CF93C82F2FEF83EFAE
:1003F00091E0215080409040E1F700C000003ADEDB
:100400008EEE83B984E886BF06B607FEFDCFC3B97A
:1004100084E886BF06B607FEFDCF2CDE8FEE83B9DB
:1004200084E886BF06B607FEFDCF84EC86BF06B61D
:1004300007FEFDCF83B180939D0084E886BF06B69A
:1004400007FEFDCF83B18093900084E986BF809141
:100450009D0090E0982F882720919000820F911D99
:10046000CF910895CF93DF93D82FC62F2FEF83EF2F
:1004700091E0215080409040E1F700C00000FADD9B
:100480008EEE83B984E886BF06B607FEFDCFD3B9EA
:1004900084E886BF06B607FEFDCFC3B984E886BFF1
:1004A00006B607FEFDCF84E986BFDF91CF910895A0
:1004B0008AEA9ADF90937200809371008CEA94DF4D
:1004C0009093A6008093A5008EEA8EDF9093A800FB
:1004D0008093A70080EB88DF90939700809396002D
:1004E00082EB82DF90938B0080938A0084EB7CDF29
:1004F000909379008093780086EB76DF9093C1002B
:100500008093C00088EB70DF9093AA008093A900CD
:100510008AEB6ADF9093A00080939F008CEB64DFEE
:100520009093C7008093C6008EEB5EDF90937000BF
:1005300080936F0080ED2DDF8535C1F48DE08093D1
:1005400091008CE0809373008093AF008BE08093E8
:100550009C0087E594E0A0E0B0E080938600909353
:100560008700A0938800B093890014C08FE0809327
:1005700073008EE08093AF0080939C0087E594E049
:10058000A0E0B0E08093860090938700A09388005D
:10059000B09389002FEF89E698E121508040904088
:1005A000E1F700C0000010928600109287001092C0
:1005B000880010928900089563DDB3DD789454DDDE
:1005C0002FEF89E698E1215080409040E1F700C08C
:1005D00000006EDF332433946894222421F86EE205
:1005E00084EF40DFA7E2B3E21197F1F700C000000B
:1005F00086EFFADEA0E0B0E080937E0090937F006B
:10060000A0938000B093810064E384EF2BDF87E246
:1006100093E20197F1F700C0000086EFE5DEA0E06D
:10062000B0E08093C2009093C300A093C400B09345
:10063000C500809178009091790040917E005091A2
:100640007F0060918000709181009A01AB01281BAE
:10065000390B41095109A0918A00B0918B00C4D691
:100660006B017C01992334F4AFEFCA0EAFE7DA1EB9
:10067000E11CF11C0B2EBFE0F594E794D794C794CE
:10068000BA95D1F7B02DC092A100D092A200E0920D
:10069000A300F092A4006091C6007091C700CB0146
:1006A000AA2797FDA095BA2FBC01CD01052E5BE0CE
:1006B000660F771F881F991F5A95D1F7502D2091EB
:1006C0006F00309170008901222717FD2095322F8D
:1006D000A90198012C0D3D1D4E1D5F1D69D620936B
:1006E0008200309383004093840050938500C20EB3
:1006F000D31EE41EF51EC0929200D0929300E092A9
:100700009400F0929500B8E0CB0ED11CE11CF11CD6
:10071000D701C6011AF40F96A11DB11D689413F8F4
:10072000B595A795979587951694D1F780938C00EA
:1007300090938D00A0938E00B0938F008B3F910516
:10074000A105B1050CF4C8C0C59A2FEF80E792E06F
:10075000215080409040E1F700C00000C598AFEF05
:10076000B0E722E0A150B0402040E1F700C0000017
:10077000C59A8FEF90E7A2E081509040A040E1F74A
:1007800000C00000C598BFEF20E782E0B1502040D4
:100790008040E1F700C00000C59A9FEFA0E7B2E0FB
:1007A0009150A040B040E1F700C00000C5982FEF85
:1007B00080E792E0215080409040E1F700C00000C7
:1007C000C59AAFEFB0E722E0A150B0402040E1F77A
:1007D00000C00000C5988FEF90E7A2E081509040E4
:1007E000A040E1F700C00000C59ABFEF20E782E01B
:1007F000B15020408040E1F700C00000C5989FEF55
:10080000A0E7B2E09150A040B040E1F700C0000086
:10081000C59A2FEF80E792E0215080409040E1F7A9
:1008200000C00000C598AFEFB0E722E0A150B04093
:100830002040E1F700C00000C59A8FEF90E7A2E0EA
:1008400081509040A040E1F700C00000C598BFEF84
:1008500020E782E0B15020408040E1F700C0000076
:10086000C59A9FEFA0E7B2E09150A040B040E1F7F9
:1008700000C00000C5982FEF80E792E02150804033
:100880009040E1F700C00000C59AAFEFB0E722E06A
:10089000A150B0402040E1F700C00000C5988FEFA4
:1008A00090E7A2E081509040A040E1F700C0000036
:1008B000C59ABFEF20E782E0B15020408040E1F7C9
:1008C00000C00000C5989FEFA0E7B2E09150A040A3
:1008D000B040E1F700C00000B09935C080916A00D7
:1008E000811131C080916800909169008530910537
:1008F00030F4019690936900809368002FC0809136
:100900008C0090918D00A0918E00B0918F0080930B
:10091000740090937500A0937600B0937700809355
:10092000860090938700A0938800B09389002FEFF2
:1009300089E698E1215080409040E1F700C0000036
:1009400030926A000BC08091680090916900009716
:1009500029F001979093690080936800B09935C0A1
:1009600080916A00813089F58091660090916700DE
:100970008530910530F4019690936700809366006E
:100980002FC080918C0090918D00A0918E00B0912D
:100990008F008093980090939900A0939A00B09351
:1009A0009B008093860090938700A0938800B0936B
:1009B0008900AFEFB3ED20E3A150B0402040E1F754
:1009C00000C0000020926A000BC0809166009091E8
:1009D0006700009729F00197909367008093660065
:1009E000B0998BC080916A00823009F086C08091F6
:1009F0006400909165008530910530F401969093E4
:100A000065008093640084C0C0908C00D0908D00FD
:100A1000E0908E00F0908F00C092B800D092B900A4
:100A2000E092BA00F092BB004091740050917500C2
:100A30006091760070917700809198009091990074
:100A4000A0919A00B0919B00840F951FA61FB71F1D
:100A5000BC01CD016C0D7D1D8E1D9F1D23E030E07E
:100A600040E050E0A5D42093B4003093B50040930B
:100A7000B6005093B700C0928600D0928700E092F3
:100A80008800F09289008FEF93EDA0E381509040B1
:100A9000A040E1F700C0000088EB92E2A0E0B0E0E7
:100AA0008093860090938700A0938800B09389007C
:100AB0009FEFA1E1BAE79150A040B040E1F700C03C
:100AC00000008091B4009091B500A091B600B09163
:100AD000B7008093860090938700A0938800B0931E
:100AE00089002FEF83ED90E3215080409040E1F7A3
:100AF00000C0000010926A000BC0809164009091C9
:100B00006500009729F00197909365008093640039
:100B1000B69996C1809162009091630085309105ED
:100B200008F08BC10196909363008093620093C19B
:100B30006EE284EF97DCA7E2B3E21197F1F700C011
:100B4000000086EF51DCA0E0B0E080937E0090933F
:100B50007F00A0938000B093810064E384EF82DC87
:100B600087E293E20197F1F700C0000086EF3CDCDA
:100B7000A0E0B0E08093C2009093C300A093C400B3
:100B8000B093C500809178009091790040917E00EB
:100B900050917F0060918000709181009A01AB01BB
:100BA000281B390B41095109A0918A00B0918B0093
:100BB0001BD46B017C01992334F4AFEFCA0EAFE76D
:100BC000DA1EE11CF11C0B2EBFE0F594E794D794DC
:100BD000C794BA95D1F7B02DC092A100D092A200CF
:100BE000E092A300F092A4006091C6007091C7004B
:100BF000CB01AA2797FDA095BA2FBC01CD01052EE8
:100C00005BE0660F771F881F991F5A95D1F7502D0B
:100C100020916F00309170008901222717FD2095E7
:100C2000322FA90198012C0D3D1D4E1D5F1DC0D313
:100C3000209382003093830040938400509385007A
:100C4000C20ED31EE41EF51EC0929200D0929300F5
:100C5000E0929400F0929500B8E0CB0ED11CE11C1C
:100C6000F11CD701C6011AF40F96A11DB11D68949D
:100C700013F8B595A795979587951694D1F7809316
:100C80008C0090938D00A0938E00B0938F00809382
:100C9000860090938700A0938800B09389008B3FD3
:100CA0009105A105B1050CF4C8C0C59A2FEF80E7E6
:100CB00092E0215080409040E1F700C00000C598CC
:100CC000AFEFB0E722E0A150B0402040E1F700C014
:100CD0000000C59A8FEF90E7A2E081509040A040BD
:100CE000E1F700C00000C598BFEF20E782E0B150F7
:100CF00020408040E1F700C00000C59A9FEFA0E7C8
:100D0000B2E09150A040B040E1F700C00000C598AB
:100D10002FEF80E792E0215080409040E1F700C043
:100D20000000C59AAFEFB0E722E0A150B0402040EC
:100D3000E1F700C00000C5988FEF90E7A2E0815076
:100D40009040A040E1F700C00000C59ABFEF20E747
:100D500082E0B15020408040E1F700C00000C5981B
:100D60009FEFA0E7B2E09150A040B040E1F700C093
:100D70000000C59A2FEF80E792E02150804090401C
:100D8000E1F700C00000C598AFEFB0E722E0A15046
:100D9000B0402040E1F700C00000C59A8FEF90E717
:100DA000A2E081509040A040E1F700C00000C5984B
:100DB000BFEF20E782E0B15020408040E1F700C063
:100DC0000000C59A9FEFA0E7B2E09150A040B0406C
:100DD000E1F700C00000C5982FEF80E792E02150B6
:100DE00080409040E1F700C00000C59AAFEFB0E747
:100DF00022E0A150B0402040E1F700C00000C598BB
:100E00008FEF90E7A2E081509040A040E1F700C052
:100E10000000C59ABFEF20E782E0B150204080403B
:100E2000E1F700C00000C5989FEFA0E7B2E0915045
:100E3000A040B040E1F700C00000B69B79CE0BC0E7
:100E40008091620090916300009729F00197909340
:100E5000630080936200B79966C2809160009091B0
:100E600061008530910518F0B79B07C067C20196F5
:100E7000909361008093600061C26EE284EFF2DAC9
:100E800087E293E20197F1F700C0000086EFACDA49
:100E9000A0E0B0E080937E0090937F00A09380005C
:100EA000B093810064E384EFDDDAA7E2B3E2119747
:100EB000F1F700C0000086EF97DAEC01AC0160E0CA
:100EC00070E04093C2005093C3006093C4007093DD
:100ED000C500809178009091790040917E005091FA
:100EE0007F0060918000709181009A01AB01281B06
:100EF000390B41095109A0918A00B0918B0074D23D
:100F00006B017C01992334F4BFEFCB0EBFE7DB1EEE
:100F1000E11CF11C0B2EBFE0F594E794D794C79425
:100F2000BA95D1F7B02D6091C6007091C700CB0182
:100F3000AA2797FDA095BA2FBC01CD01052E5BE035
:100F4000660F771F881F991F5A95D1F7502D209152
:100F50006F00309170008901222717FD2095322FF4
:100F6000A90198012C0D3D1D4E1D5F1D21D2C20E01
:100F7000D31EE41EF51EC0929200D0929300E09220
:100F80009400F092950097018601085F1F4F2F4F44
:100F90003F4FB901A801332324F4415F5F4F6F4FE6
:100FA0007F4F689413F875956795579547951694F4
:100FB000D1F740938C0050938D0060938E00709316
:100FC0008F0030926A0020EAC21A2FE0D20AE108AC
:100FD000F108C0927A00D0927B00E0927C00F092FF
:100FE0007D00A7019601C701B601B1D12B013C01DB
:100FF000992334F4AFEF4A0EAFE05A1E611C711C06
:10100000032E3CE075946794579447943A95D1F732
:10101000302DA091A900B091AA00A3019201EED1B8
:101020004B015C01992334F4BFEF8B0EB7E09B1E9C
:10103000A11CB11C072E7BE0B594A79497948794CC
:101040007A95D1F7702DA091A500B091A600A701C7
:101050009601D4D18B019C01992324F40150184F9F
:101060002F4F3F4FB901A801032E3BE075956795BF
:10107000579547953A95D1F7302D480D591D6A1D62
:101080007B1D0091710010917200000F111F000F65
:10109000111F222717FD2095322F400F511F621F6D
:1010A000731F4E5F5F4F6F4F7F4F4A015B01772386
:1010B0002CF423E0820E911CA11CB11CB594A794C2
:1010C00097948794B594A794979487948092C80036
:1010D0009092C900A092CA00B092CB00A091A70044
:1010E000B091A800A701960189D16B017C019923D9
:1010F00034F4AFEFCA0EAFE1DA1EE11CF11C0B2E87
:10110000BDE0F594E794D794C794BA95D1F7B02D84
:10111000A091C000B091C100A30192016FD18B01D9
:101120009C01992324F4015011092F4F3F4FA9012D
:10113000772757FD7095672FC40ED51EE61EF71E44
:10114000B2E0CB0ED11CE11CF11CB701A60122F4C8
:101150004D5F5F4F6F4F7F4F7595679557954795DB
:1011600075956795579547954093AB005093AC00A4
:101170006093AD007093AE009A01AB0130584F4FB1
:101180005F4FA0919600B09197002ED16B017C012A
:101190000B2EBFE0F694E794D794C794BA95D1F795
:1011A000B02DC092B000D092B100E092B200F092A7
:1011B000B300CE01A0E0B0E09C01AD0128193909CF
:1011C0004A095B09A0E5B3EC0FD16093BC007093B2
:1011D000BD008093BE009093BF00992384F0660FFA
:1011E000771F881F991FA7019601C0D020936B001D
:1011F00030936C0040936D0050936E0011C0A701B6
:101200009601B4D0DA01C901880F991FAA1FBB1F2C
:1012100080936B0090936C00A0936D00B0936E0070
:10122000C0906B00D0906C00E0906D00F0906E006C
:10123000D701C601FF2024F481509F4FAF4FBF4F0D
:10124000692F7A2F8B2F992787FD9A959B01AC01E7
:101250007ED09B01AC01AEEDBBE0C6D08B019C0102
:10126000992324F4015011092F4F3F4F4901BB240A
:1012700097FCB094AB2C8092A1009092A200A09217
:10128000A300B092A400A3E4B3EEA7019601B8D0E6
:101290008B019C01992324F4015011092F4F3F4FDA
:1012A000C901BB2797FDB095AB2F80938200909327
:1012B0008300A0938400B0938500880E991EAA1E17
:1012C000BB1E2FEC820E2EE0921EA11CB11CD5017C
:1012D000C4011AF40F96A11DB11D689413F8B595B9
:1012E000A795979587951694D1F7BC01CD016C0D04
:1012F0007D1D8E1D9F1D60936B0070936C0080930D
:101300006D0090936E0024E630E040E050E050D055
:101310002093860030938700409388005093890083
:10132000B79BABCD0BC0809160009091610000979E
:1013300029F00197909361008093600010928600DD
:1013400010928700109288001092890048C9DB0132
:101350008F939F9349D0BF91AF91A29F800D911D14
:10136000A39F900DB29F900D11240895A1E21A2E13
:10137000AA1BBB1BFD010DC0AA1FBB1FEE1FFF1F39
:10138000A217B307E407F50720F0A21BB30BE40B89
:10139000F50B661F771F881F991F1A9469F76095D0
:1013A0007095809590959B01AC01BD01CF0108958A
:1013B000052E97FB16F400940FD057FD05D0D6DF0D
:1013C00007FC02D046F408C0509540953095219511
:1013D0003F4F4F4F5F4F0895909580957095619561
:1013E0007F4F8F4F9F4F08950FD0A59F900DB49FB3
:1013F000900DA49F800D911D11240895B7FFF4CF87
:10140000F3DF821B930B0895A29FB001B39FC0012D
:10141000A39F01D0B29F700D811D1124911D0895CD
:04142000F894FFCF6E
:00000001FF
